:100000000C9488000C94480D0C946F0D0C94B00067
:100010000C94B0000C94B0000C94B0000C946614D6
:100020000C94B0000C94B0000C94B0000C94B00090
:100030000C94B0000C94B0000C94B0000C94B00080
:100040000C94960D0C94B0000C945B100C948D10D5
:100050000C94B0000C94B0000C94B0000C94B00060
:100060000C94E80B0C94B000EA03ED03F003F303E7
:10007000F603F903FC035E01011F01030301008A7B
:1000800002010A010202010064001E47040B090676
:10009000007C0101060103030100F401060E0102C8
:1000A000020100C201170101020201010000000863
:1000B000000201000003040700000000000000002F
:1000C00001020408102040800102040810200102EF
:1000D00004081020040404040404040402020202BC
:1000E00002020303030303030000000023002600B1
:1000F000290000000000250028002B00000000005F
:10010000240027002A000200C801FE0ABD10FD01DC
:1001100011241FBECFEFD8E0DEBFCDBF13E0A0E0BB
:10012000B1E0EEE3FDE202C005900D92AE39B107F9
:10013000D9F725E0AEE9B3E001C01D92A23FB207B6
:10014000E1F711E0CEE0D1E004C02297FE010E9469
:100150003D15C830D107C9F70E94C3140C949216FC
:100160000C940000DC01ED91FC910190F081E02DF8
:100170000994CF93DF93C0E0D0E086EC93E00E9437
:100180001707C817D90778F42091BA033091BB0339
:100190004091BC035091BD03BE0186EC93E00E94E8
:1001A0009F062196EACF86EC93E0DF91CF910C94E5
:1001B000830582E00E94ED0E8130910561F420916B
:1001C000A3033091A403232B31F49093A4038093D1
:1001D000A30381E008959093A4038093A30380E098
:1001E000089583E00E94ED0E8130910561F4209125
:1001F000A1033091A203232B31F49093A2038093A7
:10020000A10381E008959093A2038093A10380E06D
:10021000089524E030E042EF53E060E070E08BEAC4
:1002200093E00C94CD0728E030E041E450E060E03A
:1002300070E08BEA93E00C94CD070F931F93CF935C
:10024000DF9380910A0190910B01A0910C01B09174
:100250000D01B7FD10C00E94E00D00910A01109140
:100260000B0120910C0130910D016017710782077D
:1002700093070CF454C081E08093A00360E088E011
:100280000E94B70E80919E0390919F038037910545
:1002900040F0809108019091090190939F03809311
:1002A0009E0380919E0390919F03880F991FFC01EC
:1002B000EC51FE4FC081D181FC01E25FFE4F809185
:1002C000060190910701608171810E94E6148B0103
:1002D0000E94E00D9801442737FD4095542F620F8E
:1002E000731F841F951F60930A0170930B01809305
:1002F0000C0190930D0180919E0390919F030196B4
:1003000090939F0380939E031C161D0644F4BE0128
:1003100088E0DF91CF911F910F910C942212DF9111
:10032000CF911F910F9108956FEC72E08CE395E0EF
:100330000E944B110E941D010C94090120E030E045
:10034000A90160E070E088E00E94221288E00E942B
:10035000511460E088E00E94B70E1092A003109242
:100360009F0310929E038FEF9FEFDC0180930A01A1
:1003700090930B01A0930C01B0930D010895982F59
:1003800092959F708F702AE0929F800D112408959E
:1003900022E530E046E068E170E086EC93E00E9400
:1003A000770640E460E480E00E9404076093C203A3
:1003B0007093C3038093C4039093C50320E440E08B
:1003C00060E480E00E940D076093BE037093BF035A
:1003D0008093C0039093C10340E060E080E00E94FE
:1003E00004076093BA037093BB038093BC0390939C
:1003F000BD038BEA93E00C94330786EC93E00C94F6
:10040000EB046F927F928F929F92AF92BF92CF92A6
:10041000DF92EF92FF920F931F93CF93DF934C01E4
:100420005B01EA01390168E670E083E794E00E942D
:10043000820A60E070E083E794E00E94B20083E704
:1004400094E00E94FB0A47E050E068E670E083E732
:1004500094E00E94F80A83E794E00E94DF098F7716
:100460000E94BF01F401808383E794E00E94DF09CA
:100470000E94BF01F501808383E794E00E94DF09B9
:100480008F730E94BF01888383E794E00E94DF0995
:100490000E94BF01F301808383E794E00E94DF099B
:1004A0000E94BF01F801808383E794E00E94DF0986
:1004B0000E94BF01F701808383E794E00E94DF0977
:1004C0000E94BF01F6018083DF91CF911F910F91B0
:1004D000FF90EF90DF90CF90BF90AF909F908F9064
:1004E0007F906F900895CF92DF92EF92FF920F93DB
:1004F0001F93CF93DF93CDB7DEB727970FB6F8944E
:10050000DEBF0FBECDBF68E670E083E794E00E94D7
:10051000820A60E070E083E794E00E94B20083E723
:1005200094E00E94FB0A47E050E068E670E083E751
:1005300094E00E94F80ACE0101966C0101967C01BC
:100540008E010D5F1F4F9E012C5F3F4FAE014B5F31
:100550005F4FBE016A5F7F4F05960E9401028E8148
:1005600090E027960FB6F894DEBF0FBECDBFDF91A7
:10057000CF911F910F91FF90EF90DF90CF90089552
:1005800060E082E00E947E0E60E083E00E947E0ECA
:1005900048E060E080E00E9404076093C20370932B
:1005A000C3038093C4039093C50340E060E180E0FF
:1005B0000E9404076093BE037093BF038093C0033F
:1005C0009093C10388EE93E09093C7028093C60294
:1005D00083E794E00E946E0A26E040E855E260E07E
:1005E00070E08CE395E00E94F90F0E94730268E1CD
:1005F00070E00E94E6140196AC01662757FD6095F5
:10060000762F4093A7035093A8036093A903709398
:10061000AA032AE030E08CE395E00E94AC1169E582
:1006200073E08CE395E00E943E116091C4027091EA
:10063000C5024AE050E08CE395E00E94F61140913B
:10064000A7035091A8036091A9037091AA03509346
:10065000C5024093C4022AE030E08CE395E00E949A
:10066000AC1169E573E08CE395E00E943E11609166
:10067000C4027091C5024AE050E08CE395E00E940C
:10068000F61186EC93E00E94FF0486EC93E00E9452
:1006900083056AE070E08BEA93E00E945A0762E00B
:1006A00070E08BEA93E00E941B076DEE72E08CE332
:1006B00095E00C944B11CF92DF92EF92FF920F9343
:1006C0001F93CF93DF93CDB7DEB727970FB6F8947C
:1006D000DEBF0FBECDBFCE0101966C0101967C013D
:1006E0008E010D5F1F4F9E012C5F3F4FAE014B5F90
:1006F0005F4FBE016A5F7F4F05960E9401024AE08C
:1007000050E06D818CE395E00E941B126CEF72E06B
:100710008CE395E00E943E118E818A3030F46EEFBA
:1007200072E08CE395E00E943E114AE050E06E8159
:100730008CE395E00E941B126CEF72E08CE395E075
:100740000E943E118F818A3030F46EEF72E08CE3AC
:1007500095E00E943E114AE050E06F818CE395E005
:100760000E941B126FE073E08CE395E00E943E1143
:100770004AE050E06B818CE395E00E941B1260E040
:1007800073E08CE395E00E943E114AE050E06A81FC
:100790008CE395E00E941B1260E073E08CE395E02F
:1007A0000E943E114AE050E069818CE395E00E948E
:1007B0001B1262E073E08CE395E00E943E118C8195
:1007C00090E0FC013197E730F105E0F4EC5CFF4F7D
:1007D0000C943B1561E173E011C068E173E00EC059
:1007E0006FE173E00BC067E273E008C061E373E0A0
:1007F00005C06AE373E002C061E473E08CE395E056
:100800000E944B1127960FB6F894DEBF0FBECDBFE6
:10081000DF91CF911F910F91FF90EF90DF90CF90DC
:100820000895CF93DF930E94B900C0E0D0E080919B
:10083000C4029091C502C817D9077CF42091C20365
:100840003091C3034091C4035091C503BE0186ECAF
:1008500093E00E949F062196EACF6091A5037091D4
:10086000A6031616170674F42091BE033091BF0339
:100870004091C0035091C1036150710986EC93E02F
:100880000E949F0686EC93E00E948305DF91CF9142
:100890000C945B030E9473020E947302AA2797FDC7
:1008A000A095BA2F4091A7035091A8036091A90386
:1008B0007091AA0384179507A607B70709F445C0E6
:1008C0000E947302AC01662757FD6095762F409316
:1008D000A7035093A8036093A9037093AA032AE087
:1008E00030E08CE395E00E94AC1169E573E08CE3A5
:1008F00095E00E943E116091C4027091C5024AE0E9
:1009000050E08CE395E00E94F6110E9411042091C2
:10091000A5033091A6038091C4029091C5022817C7
:10092000390711F40E9494018091C4029091C5028C
:1009300001969093C5028093C402499734F081E0F8
:1009400090E09093C5028093C4020E94D90088234E
:1009500071F10E94E00DAB01BC012AE030E08CE3B4
:1009600095E00E94AC116AE473E08CE395E00E948C
:100970003E116091A5037091A6036F5F7F4F709346
:10098000A6036093A5034AE050E08CE395E00E9443
:10099000F6118091A5039091A603499734F08FEF4B
:1009A0009FEF9093A6038093A5030E9411040E94D9
:1009B000F100882351F06BE573E08CE395E00E9431
:1009C0004B110E949E010E9413018091A00381118E
:1009D0000C941D010895CF93DF93EC0188859985D0
:1009E000009711F00E94F3158E8187FD05C060E02D
:1009F000DF91CF910C947E0EDF91CF910895CF932C
:100A0000DF93EC018E8187FD07C061E00E947E0EBE
:100A100060E08E810E94B70E81E08983DF91CF91E3
:100A20000895EF92FF920F931F93CF93DF93EC0102
:100A30007B0188859985009711F00E94F3159D85AB
:100A40008A85981303C083E090E002C084E090E0C0
:100A50008E9D80018F9D100D9E9D100D11241D8374
:100A60000C83C8010E945B1599878887009741F025
:100A7000A80160E070E00E948B16FB82EA8204C04D
:100A80001D821C821B821A82DF91CF911F910F91D0
:100A9000FF90EF900895FC0121E0958582859813E1
:100AA00020E0CB0136E0969587953A95E1F7482FFF
:100AB00043704587CB0154E0969587955A95E1F7A9
:100AC000382F33703287CB01969587959695879509
:100AD00083708387862F8370848781E06F3F7105E1
:100AE00011F008F080E0808380859185892B51F09A
:100AF00091E0431390E0921729F062817381CF0156
:100B00000C9411050895CF92DF92EF92FF920F930C
:100B10001F93CF93DF93CDB7DEB729970FB6F89425
:100B2000DEBF0FBECDBF8C01DC0118968D919C916C
:100B30001997892B09F49AC00E94EC0DF801C6841C
:100B4000D784E088F1886C197D098E099F0962338A
:100B500071058105910580F3F894848195819A83CC
:100B60008983A085B1857D01EFEFEE1AFE0A8C9195
:100B70008987D8019C9152960D90BC91A02DF801C7
:100B80008489992309F42EC09C91982B98879C9175
:100B9000809589238F838F818E8388E08D8358850C
:100BA0006F8149853D812E8189819A81F7015C930E
:100BB00047FD252F3A952C93262F39F0441F00C06E
:100BC00000006C93000000C0F2CF38E041916C93BC
:100BD0000000019761F7F801B38BA28B49873D8331
:100BE0002E8338C09C91982B98879C91809589235F
:100BF0008F838F818C8388E08B8358856F814985B3
:100C00003B812C8189819A81F7015C9347FD252FD7
:100C100000C000C02C9300C000C000C000C000C0D5
:100C20006C930000262F3A9541F0441F000000C04D
:100C300000C000C000C000C0E8CF38E0419100C053
:100C40006C9300C0019709F7F801B38BA28B498719
:100C50003B832C839A83898378940E94EC0DD8017E
:100C60001E966D937D938D939C93519729960FB605
:100C7000F894DEBF0FBECDBFDF91CF911F910F91D2
:100C8000FF90EF90DF90CF9008951F93CF93DF9365
:100C9000EC01162F8981882331F08E8187FD03C0F6
:100CA00060E00E947E0E1E838981882341F061E00E
:100CB000812F0E947E0E60E0812F0E94B70E812F4F
:100CC00090E0FC01EC52FF4FE491F0E0EE0FFF1FCB
:100CD000EE50FF4F259134913B8B2A8BFC01E05461
:100CE000FF4F84918C8BDF91CF911F910895EF92EC
:100CF000FF920F931F93CF93DF931F92CDB7DEB771
:100D00007C018B01FC0111821782118610861686E8
:100D10001786108A118AB90149830E944B05B801D0
:100D2000C7010E9411054981642FC7010F90DF910F
:100D3000CF911F910F91FF90EF900C944506CF92A9
:100D4000DF92EF92FF920F931F93CF93DF93FC01FB
:100D5000828193816817790708F04DC0CA01AA27DC
:100D6000BB27182FC32ED42EE52EFF24DC2DC22F37
:100D70000781002361F0809FC0011124192FC09EBC
:100D800060011124DD2D209FC0011124C92FF5849D
:100D90008285A085B185F81208C0CB01880F991F04
:100DA000860F971F8A0F9B1F17C0CB01880F991FB3
:100DB000880F991F8A0F9B1F452F55276627772776
:100DC000DC01AF0DB11D002329F0409F90011124DB
:100DD000232F01C0242F2C932285DC01A20FB11DEB
:100DE0001C932385DC01A20FB11DDC932485FC013B
:100DF000E20FF11DC083DF91CF911F910F91FF9002
:100E0000EF90DF90CF900895962F50E060E070E073
:100E1000592B682BCB01BA010895962F50E060E062
:100E200070E0592B682B722BCB01BA010895FC019D
:100E30008281938108959B0121503109263031052B
:100E400010F061E070E09B012150310949E0429FC0
:100E5000B001439F700D11246A587F4F49E050E064
:100E600006960C9482160F931F93CF93DF93EC0199
:100E70000FEF1FEF1B830A838AE090E09D838C8332
:100E800061E070E0CE010E941B07198308838CE3A8
:100E900090E09093C9028093C80210926F04109260
:100EA00070041092710410927204DF91CF911F911F
:100EB0000F910895FC01862F6283738361E00C9487
:100EC0007E0EEF92FF920F931F93CF93DF931F92AB
:100ED000CDB7DEB77C01062FFC018685811103C0EA
:100EE00061E010E002C060E011E0F70182817983E7
:100EF0000E94B70EF701868197819C01029FC00175
:100F0000039F900D11240E940F0E612FF701828123
:100F10000E94B70EF7018681978179819C01729FAB
:100F2000C001739F900D11240F90DF91CF911F91FD
:100F30000F91FF90EF900C940F0EFC018081918136
:100F40008F3FFFEF9F07D9F010926F04109270044B
:100F5000109271041092720410926E0410926D043B
:100F6000009721F0019721F481E003C080E001C0E7
:100F70008FEF41E050E06EE579E00C94160D089596
:100F8000CF93DF93EC0188810E94360D8FEF9FEFA6
:100F900099838883DF91CF9108952F923F924F924A
:100FA0005F926F927F928F929F92AF92BF92CF92F9
:100FB000DF92EF92FF920F931F93CF93DF93EC0199
:100FC0002A013B0119018A819B81019609F45CC0C9
:100FD000088119810F3F8FEF180719F0CE010E9489
:100FE000C007A12CB12C21E0221A3108C12CD12C30
:100FF0007601C3948C819D81A816B90654F54101F0
:1010000097FC1EC0D701C601082C04C0880F991F89
:10101000AA1FBB1F0A94D2F784219521A621B721CC
:10102000892B8A2B8B2B19F06C857D8502C06A85F4
:101030007B85CE010E94610781E0881A9108E0CF8C
:1010400068857985CE010E9461072FEFA21AB20A46
:10105000D1CF0F3F8FEF1807B9F019830883CE0166
:10106000DF91CF911F910F91FF90EF90DF90CF9084
:10107000BF90AF909F908F907F906F905F904F90B8
:101080003F902F900C949D07DF91CF911F910F916E
:10109000FF90EF90DF90CF90BF90AF909F908F9098
:1010A0007F906F905F904F903F902F9008952F9278
:1010B0003F924F925F926F927F928F929F92AF92E8
:1010C000BF92CF92DF92EF92FF920F931F93CF9335
:1010D000DF93CDB7DEB763970FB6F894DEBF0FBED0
:1010E000CDBF8C017B01019729E0289FB001299F8A
:1010F000700D11246A587F4F49E050E0CE010196EF
:101100000E9482168C816B81681708F4682F70E04A
:101110008091E3039091E4030E94D2149B014091DB
:10112000C8025091C902649FC001659F900D749FD1
:10113000900D112464E670E00E94D2148985882302
:1011400019F0E2E0F0E002C0E1E0F0E08D81829F82
:10115000A001839F500D11245B874A878E81829F57
:10116000D001839FB00D1124BD87AC878F81829FF2
:10117000A001839F500D11245F874E878885829F31
:10118000D001839FB00D1124B98BA88BAF01440F00
:10119000551F4D515C4F5B8B4A8B612C712C812C00
:1011A000912C5401170151E0251A3108E215F3057D
:1011B00008F04EC0880C991CAA1CBB1CCA88DB888E
:1011C000C60CD71CD6014D905C90C2014A855B8548
:1011D000841B950B97FF03C0919581959109861704
:1011E000970788F4D60112964D915C9113978C85E0
:1011F0009D85481B590B57FF03C0519541955109D7
:101200004617570700F1C201AE85BF858A1B9B0BAD
:1012100097FF03C091958195910986179707A0F5CF
:10122000D60112968D919C91139748895989841BF8
:10123000950B97FF03C091958195910986179707A4
:1012400018F5689480F8329654E0650E711CAECFA4
:1012500088E0E816F104B0F080926F049092700478
:10126000A0927104B09272043694279430926E0466
:1012700020926D0430936C0420936B0410936A04E5
:101280000093690481E001C080E063960FB6F89492
:10129000DEBF0FBECDBFDF91CF911F910F91FF90A9
:1012A000EF90DF90CF90BF90AF909F908F907F9006
:1012B0006F905F904F903F902F900895CF92DF9264
:1012C000EF92FF920F931F93CF93DF930E94EC0D49
:1012D0006B017C018091DF039091E0038601081B84
:1012E000190B093F21E1120790F18091E3039091DE
:1012F000E4039801281B390BC90137FF03C09195FE
:1013000081959109883C9105F0F48091DD039091DD
:10131000DE0301969093DE038093DD03029799F438
:10132000C1E0D0E06091DB037091DC03CE010E944C
:101330005708811104C02196C730D10599F7109242
:10134000DE031092DD031092DC031092DB03809128
:10135000DB039091DC038334910540F01092DC03B1
:101360001092DB031092DE031092DD03E091DB03A9
:10137000F091DC03CF0101969093DC038093DB03B3
:10138000EE0FFF1FED51FC4F11830083C092DF036E
:10139000D092E003E092E103F092E203DF91CF917B
:1013A0001F910F91FF90EF90DF90CF900895809163
:1013B000A30490E02091A404821B91090895209138
:1013C000A4048091A304281750F4E22FF0E0EB5519
:1013D000FB4F808190E02F5F2093A40408958FEF4E
:1013E0009FEF0895E091A4048091A304E81730F4DE
:1013F000F0E0EB55FB4F808190E008958FEF9FEF79
:1014000008950895CF92DF92EF92FF920F931F936A
:10141000CF93DF937C01CB018A0120917F042223AB
:1014200089F0EB016B01C40ED51ECC15DD0569F00A
:101430006991D701ED91FC910190F081E02DC701F8
:101440000995F3CF642F0E94BF0BC801DF91CF91A4
:101450001F910F91FF90EF90DF90CF900895CF9361
:10146000DF931F92CDB7DEB7698320917F042223DB
:10147000D1F020918004203240F021E030E0FC01E6
:101480003383228380E090E015C080918104E82FAF
:10149000F0E0EE57FB4F998190838F5F809381043A
:1014A0008093800405C061E0CE0101960E94BF0BCD
:1014B00081E090E00F90DF91CF910895FC011382BD
:1014C000128248EE53E060E070E044835583668307
:1014D000778382E793E09183808308951092A40438
:1014E0001092A30410928104109280040C94020BB9
:1014F00081E080937F046093A20410928104109293
:10150000800408950C94780A0F93062F21E04091EF
:10151000800462E874E08091A2040E94680B10923B
:1015200081041092800410927F040F9108958F928D
:101530009F92AF92BF92CF92DF92EF92FF920F9362
:101540001F93CF93DF93EC01F62ED42E480159015F
:10155000EE2019F10E94780A1E2D143008F013E0D5
:101560001150B8F0E881F98128E0129FB0011124F0
:10157000A501940104C056954795379527956A951E
:10158000D2F7CA01B9010190F081E02DCE01099591
:10159000E7CF60E0CE010E94840A4D2D413208F071
:1015A00040E22C2D65EA74E08F2D0E94200B1092F2
:1015B000A4048093A304DF91CF911F910F91FF901A
:1015C000EF90DF90CF90BF90AF909F908F90089555
:1015D000CF92EF920F931F93C22EE12C00E010E008
:1015E00098010E94970A1F910F91EF90CF90089554
:1015F00021E00C94E80A61E00C94840A83E794E00B
:101600000C945E0A1092320581E0809330051092AE
:101610002F0561E082E10E94B70E61E083E10E9444
:10162000B70EE9EBF0E080818E7F808380818D7F33
:10163000808388E48093B80085E48093BC0008959B
:10164000413208F043C0909132059111FCCF91E0F6
:1016500090933205209330052FEF2093C50410920C
:101660000A05240F209309059093310590913105C7
:10167000880F892B8093310580912F05813061F48B
:1016800010922F05809131058093BB008091BC00A2
:1016900083FDF8CF85EC01C085EE8093BC0080917E
:1016A00032058130E1F380910A05841710F44091EE
:1016B0000A052BE035E0FB01D9018A2F821B841734
:1016C00018F48D918193F9CF842F089580E00895C7
:1016D0000F93413208F04AC0909132059111FCCF2E
:1016E00092E090933205009330059FEF9093C504EC
:1016F00010920A0540930905FB016BE075E0DB01E0
:101700009A2F961B941718F491919D93F9CF1092EC
:10171000310590913105880F892B80933105809197
:101720002F05813061F410922F058091310580934F
:10173000BB008091BC0083FDF8CF85EC01C085EE35
:101740008093BC00222321F0809132058230E1F3A6
:101750008091C5048F3F61F08091C504803251F0C3
:101760008091C504803341F483E007C081E005C067
:1017700080E003C082E001C084E00F9108956132EF
:1017800098F420913205243089F46093E704FC0139
:1017900089EE94E0DC012A2F281B261718F42191EA
:1017A0002D93F9CF80E0089581E0089582E00895B7
:1017B00085ED8093BC008091BC0084FDFCCF10922D
:1017C0003205089585EC8093BC001092320508958F
:1017D0001F920F920FB60F9211242F933F934F93A6
:1017E0005F936F937F938F939F93AF93BF93EF9389
:1017F000FF938091B900887F803609F49EC078F508
:10180000883209F45DC090F4803109F456C038F490
:10181000882309F4F5C0883009F44FC0F5C0883139
:1018200009F44EC0803209F45FC0EEC0803409F480
:101830006AC058F4803309F457C0883309F0E4C013
:101840008093C5040E94E20BDFC0803509F44FC0CD
:10185000883509F45DC0883409F0D6C0D3C0883912
:1018600009F4C4C0A8F4883709F467C038F488368E
:1018700009F463C0803709F460C0C6C0883809F431
:10188000B5C0803909F45FC0803809F0BDC05BC0C5
:10189000803B09F483C038F4803A09F466C0883A82
:1018A00009F47CC0B1C0803C09F4A4C0883C09F4B0
:1018B000A1C0883B09F487C0A7C08091310510C042
:1018C00090910A0580910905981770F5E0910A0535
:1018D00081E08E0F80930A05F0E0E55FFA4F80818A
:1018E0008093BB0085EC83C08093C5048BC0E091DE
:1018F0000A0581E08E0F80930A058091BB00F0E01D
:10190000E55FFA4F808390910A05809109056BC0CD
:10191000E0910A0581E08E0F80930A058091BB005B
:10192000F0E0E55FFA4F80838091300581116AC055
:1019300081E080932F0584EA5EC083E080933205C6
:101940001092C604CFCF8091C604803208F04EC0FA
:10195000E091C60481E08E0F8093C6048091BB00A5
:10196000F0E0E953FB4F8083BDCF0E94E20B8091F2
:10197000C604803230F4E091C604F0E0E953FB4F36
:1019800010826091C60470E0E0912B05F0912C0567
:1019900087EC94E009951092C60436C084E08093E9
:1019A00032051092E8041092E704E0912D05F091C1
:1019B0002E0509958091E704811105C081E080938F
:1019C000E7041092E904E091E80481E08E0F80932F
:1019D000E804F0E0E751FB4F80818093BB009091D9
:1019E000E8048091E704981708F47CCF85E8809399
:1019F000BC000AC085EC8093BC001092320504C084
:101A00001092C5040E94D80BFF91EF91BF91AF9146
:101A10009F918F917F916F915F914F913F912F9106
:101A20000F900FBE0F901F90189508958230E8F424
:101A3000E82FF0E0EE0FFF1FE653FD4F7183608348
:101A4000813041F0809169008C7F842B8093690004
:101A5000E89A089580916900440F551F440F551F5F
:101A6000837F842B80936900E99A0895823078F40B
:101A7000813011F0E89801C0E998E82FF0E0EE0F0E
:101A8000FF1FE653FD4F85E19DE09183808308951C
:101A90001F920F920FB60F9211242F933F934F93E3
:101AA0005F936F937F938F939F93AF93BF93EF93C6
:101AB000FF93E091CA02F091CB020995FF91EF915B
:101AC000BF91AF919F918F917F916F915F914F9156
:101AD0003F912F910F900FBE0F901F9018951F925E
:101AE0000F920FB60F9211242F933F934F935F9352
:101AF0006F937F938F939F93AF93BF93EF93FF93D6
:101B0000E091CC02F091CD020995FF91EF91BF9148
:101B1000AF919F918F917F916F915F914F913F9185
:101B20002F910F900FBE0F901F9018951F920F923C
:101B30000FB60F9211242F933F938F939F93AF93E0
:101B4000BF938091340590913505A0913605B091F1
:101B500037053091330523E0230F2D3720F401960C
:101B6000A11DB11D05C026E8230F0296A11DB11DC0
:101B7000209333058093340590933505A093360563
:101B8000B09337058091380590913905A0913A05B9
:101B9000B0913B050196A11DB11D8093380590932E
:101BA0003905A0933A05B0933B05BF91AF919F9142
:101BB0008F913F912F910F900FBE0F901F9018950E
:101BC0002FB7F894609134057091350580913605F2
:101BD000909137052FBF08953FB7F894809138054D
:101BE00090913905A0913A05B0913B0526B5A89B87
:101BF00005C02F3F19F00196A11DB11D3FBF6627FB
:101C0000782F892F9A2F620F711D811D911D42E03F
:101C1000660F771F881F991F4A95D1F70895823064
:101C2000910538F0880F991F880F991F0597019724
:101C3000F1F70895789484B5826084BD84B581609D
:101C400084BD85B5826085BD85B5816085BDEEE6C4
:101C5000F0E0808181608083E1E8F0E010828081A3
:101C600082608083808181608083E0E8F0E0808111
:101C700081608083E1EBF0E0808184608083E0EB31
:101C8000F0E0808181608083EAE7F0E08081846019
:101C90008083808182608083808181608083808175
:101CA000806880831092C1000895833081F028F409
:101CB000813099F08230A1F008958730A9F0883002
:101CC000B9F08430D1F4809180008F7D03C0809181
:101CD00080008F7780938000089584B58F7702C04D
:101CE00084B58F7D84BD08958091B0008F7703C047
:101CF0008091B0008F7D8093B0000895CF93DF93E3
:101D000090E0FC01E054FF4F2491FC01EC52FF4FA6
:101D10008491882349F190E0880F991FFC01E450D9
:101D2000FF4FA591B4918E509F4FFC01C591D49166
:101D30009FB7611108C0F8948C91209582238C93F1
:101D4000888182230AC0623051F4F8948C91322F3A
:101D5000309583238C938881822B888304C0F894E8
:101D60008C91822B8C939FBFDF91CF9108950F931D
:101D70001F93CF93DF931F92CDB7DEB7282F30E0AC
:101D8000F901E455FF4F8491F901E054FF4F14919C
:101D9000F901EC52FF4F04910023C9F0882321F090
:101DA00069830E94550E6981E02FF0E0EE0FFF1F5E
:101DB000EE50FF4FA591B4919FB7F8948C916111AB
:101DC00003C01095812301C0812B8C939FBF0F907E
:101DD000DF91CF911F910F910895CF93DF93282F1B
:101DE00030E0F901E455FF4F8491F901E054FF4FD1
:101DF000D491F901EC52FF4FC491CC2391F08111A1
:101E00000E94550EEC2FF0E0EE0FFF1FE851FF4F40
:101E1000A591B4912C912D2381E090E021F480E0F4
:101E200002C080E090E0DF91CF910895FC01818DA8
:101E3000228D90E0805C9F4F821B91098F739927C0
:101E40000895FC01918D828D981731F0828DE80FF5
:101E5000F11D858D90E008958FEF9FEF0895FC01AF
:101E6000918D828D981761F0828DDF01A80FB11DD1
:101E70005D968C91928D9F5F9F73928F90E00895F5
:101E80008FEF9FEF089583EB90E1892B49F080E07D
:101E900090E0892B29F00E94B31081110C9400006E
:101EA0000895FC01848DDF01A80FB11DA35ABF4F17
:101EB0002C91848D90E001968F739927848FA68949
:101EC000B7892C93A089B1898C9180648C93938D70
:101ED000848D981306C00288F389E02D80818F7D60
:101EE00080830895CF93DF93EC01888D8823C9F018
:101EF000EA89FB89808185FD05C0A889B9898C9113
:101F000086FD0FC00FB607FCF5CF808185FFF2CFAD
:101F1000A889B9898C9185FFEDCFCE010E94510F20
:101F2000E7CFDF91CF910895CF92DF92FF920F9389
:101F30001F93CF93DF931F92CDB7DEB76C0181E083
:101F4000D60158968C9358975B969C915B975C96BC
:101F50008C915C97981307C05096ED91FC91519726
:101F6000808185FD2EC0F601038D10E00F5F1F4FAD
:101F70000F731127F02EF601848DF81211C00FB6E1
:101F800007FCF9CFD6015096ED91FC9151978081D5
:101F900085FFF1CFC60169830E94510F6981EBCFA4
:101FA000838DE80FF11DE35AFF4F6083D6015B96E6
:101FB0000C935B975296ED91FC91539780818062D0
:101FC0000CC0D6015696ED91FC91579760835096C0
:101FD000ED91FC91519780818064808381E090E055
:101FE0000F90DF91CF911F910F91FF90DF90CF90D5
:101FF0000895BF92CF92DF92EF92FF92CF93DF933B
:10200000EC016A017B01B22EE889F98982E08083C4
:10201000411581EE580761057105A1F060E079E096
:102020008DE390E0A70196010E94FA142150310936
:10203000410951095695479537952795211580E116
:10204000380798F0E889F989108260E874E88EE131
:1020500090E0A70196010E94FA142150310941092C
:1020600051095695479537952795EC85FD85308321
:10207000EE85FF852083188EEC89FD89B082EA8980
:10208000FB89808180618083EA89FB898081886007
:102090008083EA89FB89808180688083EA89FB8963
:1020A00080818F7D8083DF91CF91FF90EF90DF90D3
:1020B000CF90BF9008951F920F920FB60F921124E8
:1020C0002F938F939F93EF93FF93E0914C05F091A3
:1020D0004D058081E0915205F091530582FD12C0BB
:1020E0009081809155058F5F8F73209156058217DF
:1020F00051F0E0915505F0E0E45CFA4F958F809344
:10210000550501C08081FF91EF919F918F912F9193
:102110000F900FBE0F901F9018951F920F920FB641
:102120000F9211242F933F934F935F936F937F935D
:102130008F939F93AF93BF93EF93FF938CE395E0BF
:102140000E94510FFF91EF91BF91AF919F918F919D
:102150007F916F915F914F913F912F910F900FBEA3
:102160000F901F9018958CE395E00E94160F21E0C8
:10217000892B09F420E0822F089510923F051092D8
:102180003E0588EE93E0A0E0B0E080934005909398
:102190004105A0934205B093430582E893E09093F4
:1021A0003D0580933C0585EC90E090934905809334
:1021B000480584EC90E090934B0580934A0580ECB1
:1021C00090E090934D0580934C0581EC90E09093C6
:1021D0004F0580934E0582EC90E0909351058093DB
:1021E000500586EC90E09093530580935205109231
:1021F00055051092560510925705109258050895EE
:10220000CF92DF92EF92FF920F931F93CF93DF93C2
:102210007C016A01EB0100E010E00C151D0571F076
:102220006991D701ED91FC910190F081E02DC701FA
:102230000995892B19F00F5F1F4FEFCFC801DF9170
:10224000CF911F910F91FF90EF90DF90CF90089565
:102250006115710581F0DB010D900020E9F7AD01FA
:1022600041505109461B570BDC01ED91FC91028056
:10227000F381E02D099480E090E008950C942811FA
:10228000DC01ED91FC910190F081E02D09946EE864
:1022900073E00C9428110F931F93CF93DF93EC01FD
:1022A0000E9428118C01CE010E944711800F911FBE
:1022B000DF91CF911F910F9108958F929F92AF92CE
:1022C000BF92DF92EF92FF920F931F93CF93DF9312
:1022D000CDB7DEB7A1970FB6F894DEBF0FBECDBF66
:1022E0007C01F42FD52ECB0119A2223008F42AE06C
:1022F0008E010F5D1F4F822E912CA12CB12C6F2FC0
:102300007D2DA50194010E94FA14F22FD32ECA014B
:10231000015011096A3014F4E0E301C0E7E3E60F6D
:10232000D801EC93232B242B252B49F7B801C701A7
:102330000E942811A1960FB6F894DEBF0FBECDBF44
:10234000DF91CF911F910F91FF90EF90DF90BF90A1
:10235000AF909F908F900895CF92DF92EF92FF926F
:102360000F931F93CF93DF93EC016A017B0121153B
:10237000310579F4E881F9810190F081E02D642F35
:10238000DF91CF911F910F91FF90EF90DF90CF9051
:1023900009942A303105E9F477FF1AC06DE20E94F2
:1023A00040118C0144275527BA014C195D096E096B
:1023B0007F092AE0CE010E945D11800F911FDF91FD
:1023C000CF911F910F91FF90EF90DF90CF900895E4
:1023D0002AE0B701A601CE01DF91CF911F910F91A5
:1023E000FF90EF90DF90CF900C945D110F931F93AF
:1023F000CF93DF93EC019A01AB01662757FD6095FF
:10240000762F0E94AC118C01CE010E944711800FE3
:10241000911FDF91CF911F910F91089521153105E3
:1024200041F4DC01ED91FC910190F081E02D642FED
:1024300009940C945D119A01462F50E060E070E021
:102440000C940E123F924F925F926F927F928F92F6
:102450009F92AF92BF92CF92DF92EF92FF920F9333
:102460001F93CF93DF9300D000D0CDB7DEB78B01A1
:1024700029013A019091CE02981721F09F3F09F06F
:10248000DAC104C0E6E0F1E0349081C08093CE026E
:10249000E6E0F1E0E491EF3F09F4CDC1E13031F144
:1024A000E23009F44BC0E11171C014BC15BC94B505
:1024B000926094BD95B5916095BD282F30E0F901EB
:1024C000EC52FF4FE491F0E0EE0FFF1FEE50FF4F94
:1024D000459154915093E9054093E805F901E05482
:1024E000FF4F24912093E705312C53C010928000B8
:1024F000109281009091810098609093810090915A
:102500008100916090938100282F30E0F901EC5216
:10251000FF4FE491F0E0EE0FFF1FEE50FF4F4591AB
:1025200054915093E2054093E105F901E054FF4FC7
:1025300024912093E005332433942BC01092B000F3
:102540001092B1009091B00092609093B000909181
:10255000B10091609093B100282F30E0F901EC5266
:10256000FF4FE491F0E0EE0FFF1FEE50FF4F45915B
:1025700054915093DB054093DA05F901E054FF4F85
:1025800024912093D90552E0352E03C03E2E37FC0E
:1025900052C161E00E947E0E4801A12CB12C832D16
:1025A0008D7F09F0C7C060E072E18AE790E0A50185
:1025B00094010E941C1529833A834B835C83690133
:1025C0007A0181E0C81AD108E108F1089FEFC91625
:1025D000D104E104F10409F008F49AC060E472E463
:1025E0008FE090E0A50194010E941C1569017A0119
:1025F000E1E0CE1AD108E108F108F2E03F1219C07B
:102600008FEFC816D104E104F10409F008F48AC080
:1026100060E970ED83E090E0A50194010E941C1533
:1026200069017A0191E0C91AD108E108F10883E053
:1026300001C082E0EFEFCE16D104E104F10409F00D
:1026400008F467C068E478EE81E090E0A5019401A9
:102650000E941C1569017A01F1E0CF1AD108E10846
:10266000F1083320E1F082E038121BC09FEFC91659
:10267000D104E104F10409F008F4DBC064E274EF72
:1026800080E090E0A50194010E941C1569017A0187
:10269000E1E0CE1AD108E108F10885E003C083E04B
:1026A00001C084E0FFEFCF16D104E104F10489F109
:1026B00080F162E17AE780E090E0A50194010E9458
:1026C0001C1569017A0181E0C81AD108E108F108F6
:1026D000311002C084E001C086E09FEFC916D1042A
:1026E000E104F104B1F0A8F0C980DA80EB80FC804D
:1026F0009AE0F594E794D794C7949A95D1F7E1E0DE
:10270000CE1AD108E108F108332031F087E00BC080
:1027100081E0332011F007C085E095B5987F982BB4
:1027200095BD38C082E09091B100987F982B90932E
:10273000B10030C060E072E18AE790E0A501940149
:102740000E941C1569017A01F1E0CF1AD108E10855
:10275000F108C114D10481E0E806F10488F068E4CE
:1027600078EE81E090E0A50194010E941C156901BA
:102770007A0191E0C91AD108E108F10893E001C09B
:1027800091E0E1E03E1206C080918100887F892BB4
:1027900080938100411451046104710471F0D801E7
:1027A000AA0FBB1FA30192010E94411528EE33E03E
:1027B00040E050E00E94FA1403C02FEF3FEFA90160
:1027C000F1E03F16A1F082E0381619F1311033C064
:1027D000C7BC2093EA053093EB054093EC0550937A
:1027E000ED0580916E00826080936E0024C0D092CF
:1027F0008900C09288002093E3053093E40540935C
:10280000E5055093E60580916F00826080936F002C
:1028100012C0C092B3002093DC053093DD054093D5
:10282000DE055093DF058091700082608093700018
:1028300002C084E078CF0F900F900F900F90DF913F
:10284000CF911F910F91FF90EF90DF90CF90BF90AD
:10285000AF909F908F907F906F905F904F903F9040
:102860000895813039F018F0823051F008951092B7
:102870006E00089580916F008D7F80936F000895A2
:10288000809170008D7F8093700081E08093B00014
:102890008091B100887F84608093B1001092B30072
:1028A0000895CF93C82F8091CE028C1307C0E6E025
:1028B000F1E084919FEF9093CE0201C08FEF0E94D0
:1028C000311460E08C2FCF910C94B70E1F920F92B1
:1028D0000FB60F9211242F933F934F935F936F93F3
:1028E0007F938F939F93AF93BF93EF93FF938091C9
:1028F000DC059091DD05A091DE05B091DF05892B07
:102900008A2B8B2B51F19091D905E091DA05F0914A
:10291000DB058081892780838091DC059091DD052E
:10292000A091DE05B091DF05181619061A061B06E0
:10293000C4F48091DC059091DD05A091DE05B09195
:10294000DF050197A109B1098093DC059093DD05AE
:10295000A093DE05B093DF0504C08091CE020E94F3
:102960005114FF91EF91BF91AF919F918F917F9102
:102970006F915F914F913F912F910F900FBE0F90EC
:102980001F90189508950E941A0E0E94C2140E946A
:10299000C002C3E4DFE00E944A042097E1F30E94F2
:1029A000430FF9CFAA1BBB1B51E107C0AA1FBB1FD6
:1029B000A617B70710F0A61BB70B881F991F5A95CB
:1029C000A9F780959095BC01CD01089597FB072E3E
:1029D00016F4009407D077FD09D00E94D21407FCAA
:1029E00005D03EF4909581959F4F0895709561951F
:1029F0007F4F0895A1E21A2EAA1BBB1BFD010DC03B
:102A0000AA1FBB1FEE1FFF1FA217B307E407F5079E
:102A100020F0A21BB30BE40BF50B661F771F881F7A
:102A2000991F1A9469F760957095809590959B0110
:102A3000AC01BD01CF010895052E97FB1EF4009453
:102A40000E94331557FD07D00E94FA1407FC03D0EB
:102A50004EF40C94331550954095309521953F4F89
:102A60004F4F5F4F089590958095709561957F4F7A
:102A70008F4F9F4F0895EE0FFF1F0590F491E02DAB
:102A800009940E944C15A59F900DB49F900DA49F92
:102A9000800D911D11240895A29FB001B39FC00124
:102AA000A39F700D811D1124911DB29F700D811D7A
:102AB0001124911D0895CF93DF938230910510F476
:102AC00082E090E0E091F005F091F10520E030E047
:102AD000A0E0B0E0309739F14081518148175907A3
:102AE000B8F04817590771F482819381109729F043
:102AF00013969C938E9312972CC09093F10580931C
:102B0000F00527C02115310531F04217530718F0A1
:102B1000A901DB0101C0EF019A01BD01DF010280C3
:102B2000F381E02DD7CF21153105F9F0281B390BA2
:102B30002430310580F48A819B816115710521F073
:102B4000FB019383828304C09093F1058093F00589
:102B5000FE01329644C0FE01E20FF31F8193919370
:102B600022503109398328833AC02091EE053091F3
:102B7000EF05232B41F420910201309103013093A2
:102B8000EF052093EE052091000130910101211500
:102B9000310541F42DB73EB7409104015091050134
:102BA000241B350BE091EE05F091EF05E217F307DA
:102BB000A0F42E1B3F0B2817390778F0AC014E5FAD
:102BC0005F4F2417350748F04E0F5F1F5093EF05F6
:102BD0004093EE058193919302C0E0E0F0E0CF01D5
:102BE000DF91CF910895CF93DF93009709F487C0C9
:102BF000FC01329713821282C091F005D091F10549
:102C0000209781F420813181280F391F8091EE05B2
:102C10009091EF058217930779F5F093EF05E09314
:102C2000EE056DC0DE0120E030E0AE17BF0750F4C6
:102C300012964D915C9113979D014115510509F133
:102C4000DA01F3CFB383A28340815181840F951FB2
:102C50008A179B0771F48D919C911197840F951F92
:102C600002969183808312968D919C911397938302
:102C700082832115310529F4F093F105E093F005E5
:102C80003EC0D9011396FC93EE9312974D915D913E
:102C9000A40FB51FEA17FB0779F480819181840F97
:102CA000951F0296D90111969C938E9382819381F0
:102CB00013969C938E931297E0E0F0E08A819B81BB
:102CC000009719F0FE01EC01F9CFCE0102962881A0
:102CD0003981820F931F2091EE053091EF0528175F
:102CE000390769F4309729F41092F1051092F00534
:102CF00002C013821282D093EF05C093EE05DF91DC
:102D0000CF910895FB01DC0102C005900D92415066
:102D10005040D8F70895DC0101C06D9341505040F8
:102D2000E0F7089511E0CEE0D1E004C0FE010E947A
:0E2D30003D152296C031D107C9F7F894FFCFA8
:102D3E000000F2058000D9050C00FFFFFFFF080020
:102D4E000800080008000800080008000800040039
:102D5E00040004000400040008000800040004003D
:102D6E00080008000800080008000800040006001B
:102D7E00060006000400080008000800080008000D
:102D8E0008000800080008000400040008000800FD
:102D9E0004000400080008000800080008000800ED
:102DAE0004000600060006000400080008000400E7
:102DBE0008000800080008000800080008000800C5
:102DCE0008000800080008000800080004000800B9
:102DDE0008000800080008000800080008000800A5
:102DEE0008000400040004000800080008000800A1
:102DFE000800080008000800080008000800080085
:102E0E000800080004000400080008000400040084
:102E1E00040002004A014A01FFFF4A01FFFF0601BA
:102E2E004A01FFFF8801FFFFC400FFFF0601FFFFFD
:102E3E00C400FFFFA500FFFFDC00FFFFF700FFFF50
:102E4E00E900DC00C4004A018801B8015D01880177
:102E5E00FFFF4A01FFFF06012601F700FFFF0601F3
:102E6E00FFFFC400FFFFA500FFFFDC00FFFFF70020
:102E7E00FFFFE900DC00C4004A018801B8015D01D2
:102E8E008801FFFF4A01FFFF06012601F700FFFF41
:102E9E00FFFF880172015D013701FFFF4A01FFFF4D
:102EAE00D000DC000601FFFFDC0006012601FFFF5B
:102EBE00880172015D013701FFFF4A01FFFF8801A2
:102ECE00FFFF88018801FEFF880172015D01370155
:102EDE00FFFF4A01FFFFD000DC000601FFFFDC0010
:102EEE0006012601FFFF3701FFFF2601FFFF060146
:102EFE00FFFFFFFF1800D0073C00150D150DFF4119
:102F0E004C41524D20414C41524D20414C41524D6D
:102F1E0020414C41524D20414C41524D005365745D
:102F2E00757020436F6D706C657465003A003000EB
:102F3E002F0020446179206F66207765656B3A20FB
:102F4E000053756E646179004D6F6E646179005443
:102F5E00756573646179005765646E657364617934
:102F6E0000546875727364617900467269646179A0
:102F7E000053617475726461790009427574746FDF
:102F8E006E205072657373656409005475726E69B4
:102F9E006E67206F666620616C61726D2E00000098
:102FAE0000002F0A020AD709DF09F209010A000000
:102FBE000000940F0011160F2F0F210F720F0D0A24
:0E2FCE00006E616E00696E66006F7666000030
:107E0000112484B714BE81FFF0D085E080938100F7
:107E100082E08093C00088E18093C10086E0809377
:107E2000C20080E18093C4008EE0C9D0259A86E02C
:107E300020E33CEF91E0309385002093840096BBD3
:107E4000B09BFECF1D9AA8958150A9F7CC24DD24C4
:107E500088248394B5E0AB2EA1E19A2EF3E0BF2EE7
:107E6000A2D0813461F49FD0082FAFD0023811F036
:107E7000013811F484E001C083E08DD089C08234E0
:107E800011F484E103C0853419F485E0A6D080C0E4
:107E9000853579F488D0E82EFF2485D0082F10E0AE
:107EA000102F00270E291F29000F111F8ED06801E7
:107EB0006FC0863521F484E090D080E0DECF843638
:107EC00009F040C070D06FD0082F6DD080E0C81688
:107ED00080E7D80618F4F601B7BEE895C0E0D1E017
:107EE00062D089930C17E1F7F0E0CF16F0E7DF06D8
:107EF00018F0F601B7BEE89568D007B600FCFDCFD4
:107F0000A601A0E0B1E02C9130E011968C91119780
:107F100090E0982F8827822B932B1296FA010C0160
:107F200087BEE89511244E5F5F4FF1E0A038BF0790
:107F300051F7F601A7BEE89507B600FCFDCF97BE46
:107F4000E89526C08437B1F42ED02DD0F82E2BD052
:107F50003CD0F601EF2C8F010F5F1F4F84911BD097
:107F6000EA94F801C1F70894C11CD11CFA94CF0C13
:107F7000D11C0EC0853739F428D08EE10CD085E9AC
:107F80000AD08FE07ACF813511F488E018D01DD067
:107F900080E101D065CF982F8091C00085FFFCCF94
:107FA0009093C60008958091C00087FFFCCF809118
:107FB000C00084FD01C0A8958091C6000895E0E648
:107FC000F0E098E1908380830895EDDF803219F02E
:107FD00088E0F5DFFFCF84E1DECF1F93182FE3DFCA
:107FE0001150E9F7F2DF1F91089580E0E8DFEE27F6
:047FF000FF270994CA
:027FFE00040479
:0400000300007E007B
:00000001FF
